:020000040800F2
:100000000000012039500008014D0008094D00088A
:10001000114D0008194D0008214D00080000000096
:10002000000000000000000000000000715C0008FB
:10003000294D000800000000715D0008354D0008E2
:10004000815000088150000881500008815000084C
:10005000815000088150000881500008815000083C
:10006000815000088150000881500008815000082C
:10007000815000088150000881500008815000081C
:10008000815000088150000881500008815000080C
:1000900081500008815000088150000881500008FC
:1000A00081500008815000088150000881500008EC
:1000B00081500008815000088150000881500008DC
:1000C00081500008815000088150000881500008CC
:1000D000815000084D4D00088150000881500008F3
:1000E00081500008815000088150000881500008AC
:1000F000815000088150000881500008815000089C
:10010000815000088150000881500008815000088B
:10011000815000088150000881500008614D00089E
:10012000815000088150000881500008815000086B
:1001300000000000000000000000000000000000BF
:1001400000000000000000000000000000000000AF
:10015000000000000000000000000000000000009F
:10016000000000000000000000000000000000008F
:10017000000000000000000000000000000000007F
:10018000000000000000000000000000000000006F
:10019000000000000000000000000000000000005F
:1001A000000000000000000000000000000000004F
:1001B000000000000000000000000000000000003F
:1001C000000000000000000000000000000000002F
:1001D000000000000000000000000000000000001F
:0401E0005FF8E0F1F3
:1001F0004FF0FF0C1CEAD0521EBF1CEAD15392EA0A
:100200000C0F93EA0C0F6FD01A4480EA010C4002E5
:1002100018BF5FEA41211ED04FF0006343EA50103F
:1002200043EA5111A0FB01310CF00040B1F5000F81
:100230003EBF490041EAD3715B0040EA010062F130
:100240007F02FD2A1DD8B3F1004F40EBC25008BF1A
:1002500020F00100704790F0000F0CF0004C08BF38
:1002600049024CEA502040EA51207F3AC2BFD2F105
:10027000FF0340EAC250704740F400004FF0000313
:10028000013A5DDC12F1190FDCBF00F0004070474D
:10029000C2F10002410021FA02F1C2F1200200FA8B
:1002A00002FC5FEA310040F1000053EA4C0308BF52
:1002B00020EADC70704792F0000F00F0004C02BFA3
:1002C000400010F4000F013AF9D040EA0C0093F01E
:1002D000000F01F0004C02BF490011F4000F013B78
:1002E000F9D041EA0C018FE70CEAD15392EA0C0FE6
:1002F00018BF93EA0C0F0AD030F0004C18BF31F051
:10030000004CD8D180EA010000F00040704790F026
:10031000000F17BF90F0004F084691F0000F91F0CA
:10032000004F14D092EA0C0F01D142020FD193EA90
:100330000C0F03D14B0218BF084608D180EA010018
:1003400000F0004040F0FE4040F40000704740F0F4
:10035000FE4040F44000704781F0004102E000BFE1
:1003600083F0004330B54FEA41044FEA430594EA75
:10037000050F08BF90EA020F1FBF54EA000C55EAB0
:10038000020C7FEA645C7FEA655C00F0E2804FEA81
:100390005454D4EB5555B8BF6D420CDD2C4480EA63
:1003A000020281EA030382EA000083EA010180EA93
:1003B000020281EA0303362D88BF30BD11F0004FE1
:1003C0004FEA01314FF4801C4CEA113102D0404217
:1003D00061EB410113F0004F4FEA03334CEA133352
:1003E00002D0524263EB430394EA050F00F0A7806A
:1003F000A4F10104D5F1200E0DDB02FA0EFC22FA65
:1004000005F2801841F1000103FA0EF2801843FA58
:1004100005F359410EE0A5F120050EF1200E012A49
:1004200003FA0EFC28BF4CF0020C43FA05F3C01887
:1004300051EBE37101F0004507D54FF0000EDCF100
:10044000000C7EEB00006EEB0101B1F5801F1BD3A9
:10045000B1F5001F0CD349085FEA30004FEA3C0CAD
:1004600004F101044FEA445212F5800F80F09A80A3
:10047000BCF1004F08BF5FEA500C50F1000041EBA7
:10048000045141EA050130BD5FEA4C0C404141EBAB
:100490000101013C28BFB1F5801FE9D291F0000FA6
:1004A00004BF01460020B1FA81F308BF2033A3F155
:1004B0000B03B3F120020CDA0C3208DD02F1140C4C
:1004C000C2F10C0201FA0CF021FA02F10CE002F187
:1004D0001402D8BFC2F1200C01FA02F120FA0CFC80
:1004E000DCBF41EA0C019040E41AA2BF01EB0451C9
:1004F000294330BD6FEA04041F3C1CDA0C340EDCC7
:1005000004F11404C4F1200220FA04F001FA02F309
:1005100040EA030021FA04F345EA030130BDC4F1C7
:100520000C04C4F1200220FA02F001FA04F340EABC
:100530000300294630BD21FA04F0294630BD94F06D
:10054000000F83F4801306BF81F480110134013D54
:100550004EE77FEA645C18BF7FEA655C29D094EAC5
:10056000050F08BF90EA020F05D054EA000C04BF43
:100570001946104630BD91EA030F1EBF002100202E
:1005800030BD5FEA545C05D14000494128BF41F0CD
:10059000004130BD14F580043CBF01F5801130BD31
:1005A00001F0004545F0FE4141F470014FF00000BC
:1005B00030BD7FEA645C1ABF194610467FEA655C6D
:1005C0001CBF0B46024650EA013406BF52EA03350F
:1005D00091EA030F41F4002130BD00BF90F0000FFD
:1005E00004BF0021704730B54FF4806404F1320439
:1005F0004FF000054FF0000150E700BF90F0000FF2
:1006000004BF0021704730B54FF4806404F1320418
:1006100010F0004548BF40424FF000013EE700BFE8
:1006200042004FEAE2014FEA31014FEA02701FBF78
:1006300012F07F4393F07F4F81F06051704732F0AA
:100640007F4208BF704793F07F4F04BF41F4002101
:10065000704730B54FF4607401F0004521F000415F
:100660001CE700BF50EA010208BF704730B54FF0E9
:1006700000050AE050EA010208BF704730B511F0EA
:10068000004502D5404261EB41014FF4806404F122
:1006900032045FEA915C3FF4D8AE4FF003025FEAA8
:1006A000DC0C18BF03325FEADC0C18BF033202EB2C
:1006B000DC02C2F1200300FA03FC20FA02F001FA86
:1006C00003FE40EA0E0021FA02F11444BDE600BF29
:1006D00070B54FF0FF0C4CF4E06C1CEA11541DBFD8
:1006E0001CEA135594EA0C0F95EA0C0F00F0DEF8A3
:1006F0002C4481EA030621EA4C5123EA4C5350EA88
:10070000013518BF52EA033541F4801143F48013D8
:1007100038D0A0FB02CE4FF00005E1FB02E506F069
:100720000042E0FB03E54FF00006E1FB03569CF0BE
:10073000000F18BF4EF0010EA4F1FF04B6F5007FC4
:1007400064F5407404D25FEA4E0E6D4146EB060636
:1007500042EAC62141EA55514FEAC52040EA5E50BF
:100760004FEACE2EB4F1FD0C88BFBCF5E06F1ED869
:10077000BEF1004F08BF5FEA500E50F1000041EBA0
:10078000045170BD06F0004646EA010140EA02004D
:1007900081EA0301B4EB5C04C2BFD4EB0C0541EA6F
:1007A000045170BD41F480114FF0000E013C00F384
:1007B000AB8014F1360FDEBF002001F0004170BDA8
:1007C000C4F10004203C35DA0C341BDC04F11404C1
:1007D000C4F1200500FA05F320FA04F001FA05F24D
:1007E00040EA020001F0004221F0004110EBD3701A
:1007F00021FA04F642EB06015EEA430E08BF20EA46
:10080000D37070BDC4F10C04C4F1200500FA04F3E8
:1008100020FA05F001FA04F240EA020001F000417A
:1008200010EBD37041F100015EEA430E08BF20EAED
:10083000D37070BDC4F1200500FA05F24EEA020E35
:1008400020FA04F301FA05F243EA020321FA04F064
:1008500001F0004121FA04F220EA020000EBD3701B
:100860005EEA430E08BF20EAD37070BD94F0000F1B
:100870000FD101F00046400041EB010111F4801F4F
:1008800008BF013CF7D041EA060195F0000F18BF00
:10089000704703F00046520043EB030313F4801F3C
:1008A00008BF013DF7D043EA0603704794EA0C0FF6
:1008B0000CEA135518BF95EA0C0F0CD050EA41060C
:1008C00018BF52EA4306D1D181EA030101F0004189
:1008D0004FF0000070BD50EA410606BF10461946B1
:1008E00052EA430619D094EA0C0F02D150EA0136BD
:1008F00013D195EA0C0F05D152EA03361CBF1046FE
:1009000019460AD181EA030101F0004141F0FE419C
:1009100041F470014FF0000070BD41F0FE4141F420
:10092000780170BD70B54FF0FF0C4CF4E06C1CEA20
:1009300011541DBF1CEA135594EA0C0F95EA0C0FD5
:1009400000F0A7F8A4EB050481EA030E52EA033590
:100950004FEA013100F088804FEA03334FF08055B1
:1009600045EA131343EA12634FEA022245EA1115DE
:1009700045EA10654FEA00260EF000419D4208BF8F
:10098000964244F1FD0404F5407402D25B084FEA3C
:100990003202B61A65EB03055B084FEA32024FF4E8
:1009A00080104FF4002CB6EB020E75EB030E22BF45
:1009B000B61A754640EA0C005B084FEA3202B6EB05
:1009C000020E75EB030E22BFB61A754640EA5C00B4
:1009D0005B084FEA3202B6EB020E75EB030E22BF44
:1009E000B61A754640EA9C005B084FEA3202B6EB45
:1009F000020E75EB030E22BFB61A754640EADC0004
:100A000055EA060E18D04FEA051545EA16754FEA65
:100A100006164FEAC30343EA52734FEAC2025FEA83
:100A20001C1CC0D111F4801F0BD141EA00014FF012
:100A300000004FF0004CB6E711F4801F04BF0143E3
:100A40000020B4F1FD0C88BFBCF5E06F3FF6AFAEFF
:100A5000B5EB030C04BFB6EB020C5FEA500C50F18F
:100A6000000041EB045170BD0EF0004E4EEA113112
:100A700014EB5C04C2BFD4EB0C0541EA045170BD19
:100A800041F480114FF0000E013C90E645EA060E5D
:100A90008DE60CEA135594EA0C0F08BF95EA0C0F8B
:100AA0003FF43BAF94EA0C0F0AD150EA01347FF4D3
:100AB00034AF95EA0C0F7FF425AF104619462CE7AA
:100AC00095EA0C0F06D152EA03353FF4FDAE10460D
:100AD000194622E750EA410618BF52EA43067FF45E
:100AE000C5AE50EA41047FF40DAF52EA43057FF4EE
:100AF000EBAE12E74FF0FF3C06E000BF4FF0010CF9
:100B000002E000BF4FF0010C4DF804CD4FEA410C5C
:100B10007FEA6C5C4FEA430C18BF7FEA6C5C1BD029
:100B200001B050EA410C0CBF52EA430C91EA030FAA
:100B300002BF90EA020F0020704710F1000F91EA07
:100B4000030F58BF994208BF90422CBFD8176FEAD5
:100B5000E37040F0010070474FEA410C7FEA6C5CA3
:100B600002D150EA013C07D14FEA430C7FEA6C5CAA
:100B7000D6D152EA033CD3D05DF8040B704700BFD6
:100B80008446104662468C461946634600E000BF24
:100B900001B5FFF7B7FF002848BF10F1000F01BDF6
:100BA0004DF808EDFFF7F4FF0CBF012000205DF8C1
:100BB00008FB00BF4DF808EDFFF7EAFF34BF012046
:100BC00000205DF808FB00BF4DF808EDFFF7E0FFDF
:100BD00094BF012000205DF808FB00BF4DF808ED30
:100BE000FFF7CEFF94BF012000205DF808FB00BF97
:100BF0004DF808EDFFF7C4FF34BF012000205DF879
:100C000008FB00BF4FEA410212F5001215D211D5C0
:100C10006FF47873B3EB625212D94FEAC12343F0F9
:100C2000004343EA505311F0004F23FA02F018BF7B
:100C3000404270474FF00000704750EA013005D144
:100C400011F0004008BF6FF0004070474FF0000007
:100C5000704700BF4FEA4102B2F1E04324BFB3F551
:100C6000001CDCF1FE5C0DD901F0004C4FEAC00223
:100C70004CEA5070B2F1004F40EB830008BF20F007
:100C80000100704711F0804F21D113F13872BCBFC1
:100C900001F00040704741F480114FEA5252C2F116
:100CA0001802C2F1200C10FA0CF320FA02F018BF5F
:100CB00040F001004FEAC1234FEAD32303FA0CFCB2
:100CC00040EA0C0023FA02F34FEA4303CCE77FEA41
:100CD000625307D150EA01331EBF4FF0FE4040F48B
:100CE0004000704701F0004040F0FE4040F400003A
:100CF000704700BF80F0004002E000BF81F000417B
:100D000042001FBF5FEA410392EA030F7FEA226CB1
:100D10007FEA236C6AD04FEA1262D2EB1363C1BF41
:100D2000D218414048404140B8BF5B42192B88BFB0
:100D3000704710F0004F40F4000020F07F4018BFD3
:100D4000404211F0004F41F4000121F07F4118BFF3
:100D5000494292EA030F3FD0A2F1010241FA03FC9B
:100D600010EB0C00C3F1200301FA03F100F0004383
:100D700002D5494260EB4000B0F5000F13D3B0F14B
:100D8000807F06D340084FEA310102F10102FE2ABA
:100D900051D2B1F1004F40EBC25008BF20F001002A
:100DA00040EA03007047490040EB0000013A28BFC9
:100DB000B0F5000FEDD2B0FA80FCACF1080CB2EB4C
:100DC0000C0200FA0CF0AABF00EBC25052421843CA
:100DD000BCBFD0401843704792F0000F81F400016F
:100DE00006BF80F400000132013BB5E74FEA410342
:100DF0007FEA226C18BF7FEA236C21D092EA030FAE
:100E000004D092F0000F08BF0846704790EA010F27
:100E10001CBF0020704712F07F4F04D1400028BF54
:100E200040F00040704712F100723CBF00F5000036
:100E3000704700F0004343F0FE4040F4000070476C
:100E40007FEA226216BF08467FEA23630146420218
:100E500006BF5FEA412390EA010F40F4800070472B
:100E60004FF0000304E000BF10F0004348BF4042D1
:100E70005FEA000C08BF704743F0964301464FF00D
:100E800000001CE050EA010208BF70474FF0000369
:100E90000AE000BF50EA010208BF704711F00043AA
:100EA00002D5404261EB41015FEA010C02BF84467A
:100EB0000146002043F0B64308BFA3F18053A3F5D9
:100EC0000003BCFA8CF2083AA3EBC25310DB01FA20
:100ED00002FC634400FA02FCC2F12002BCF1004FA4
:100EE00020FA02F243EB020008BF20F00100704735
:100EF00002F1200201FA02FCC2F1200250EA4C0089
:100F000021FA02F243EB020008BF20EADC707047CE
:100F100042000ED2B2F1FE4F0BD34FF09E03B3EB63
:100F2000126209D44FEA002343F0004323FA02F08F
:100F300070474FF00000704712F1610F01D142027B
:100F400002D14FF0FF3070474FF00000704700BFF4
:100F50000348044B834202D0034B03B11847704748
:100F60008C0000208C000020000000000548064B8B
:100F70001B1AD90F01EBA301491002D0034B03B197
:100F8000184770478C0000208C00002000000000F3
:100F900010B5064C237843B9FFF7DAFF044B13B1C1
:100FA0000448AFF300800123237010BD8C000020A3
:100FB00000000000D88A000808B5054B1BB10549A0
:100FC0000548AFF30080BDE80840FFF7CFBF00BF82
:100FD0000000000090000020D88A000880B400AF14
:100FE00000BFBD4680BC704780B582B000AF78605E
:100FF0007B68002B01D1012341E07B6893F83D30F1
:10100000DBB2002B06D17B68002283F83C20786895
:1010100003F0C8FD7B68022283F83D207B681A68D4
:101020007B6804331946104600F0C2FA7B6801223F
:1010300083F846207B68012283F83E207B680122EA
:1010400083F83F207B68012283F840207B680122DF
:1010500083F841207B68012283F842207B680122CB
:1010600083F843207B68012283F844207B680122B7
:1010700083F845207B68012283F83D200023184631
:101080000837BD4680BD000080B485B000AF7860F1
:101090007B6893F83D30DBB2012B01D001233CE0AB
:1010A0007B68022283F83D207B681B681D4A9342BF
:1010B00018D07B681B681C4A934213D07B681B685E
:1010C000B3F1804F0ED07B681B68184A934209D059
:1010D0007B681B68164A934204D07B681B68154ADC
:1010E000934211D17B681B689B6803F00703FB6088
:1010F000FB68062B10D07B681B681A687B681B682E
:1011000042F001021A6007E07B681B681A687B687E
:101110001B6842F001021A60002318461437BD46CE
:1011200080BC7047002C01400034014000040040A6
:1011300000080040000C004080B485B000AF78602B
:101140007B6893F83D30DBB2012B01D0012344E0F2
:101150007B68022283F83D207B681B68DA687B6825
:101160001B6842F00102DA607B681B681D4A9342EB
:1011700018D07B681B681C4A934213D07B681B689D
:10118000B3F1804F0ED07B681B68184A934209D098
:101190007B681B68164A934204D07B681B68154A1B
:1011A000934211D17B681B689B6803F00703FB60C7
:1011B000FB68062B10D07B681B681A687B681B686D
:1011C00042F001021A6007E07B681B681A687B68BE
:1011D0001B6842F001021A60002318461437BD460E
:1011E00080BC7047002C01400034014000040040E6
:1011F00000080040000C004080B584B000AF78606B
:101200007B681B68DB68FB607B681B681B69BB60D5
:10121000BB6803F00203002B20D0FB6803F002033D
:10122000002B1BD07B681B686FF002021A617B6881
:1012300001221A777B681B689B6903F00303002B6C
:1012400003D0786800F098F905E0786800F08BF931
:10125000786800F09AF97B6800221A77BB6803F07F
:101260000403002B20D0FB6803F00403002B1BD0E9
:101270007B681B686FF004021A617B6802221A7790
:101280007B681B689B6903F44073002B03D078686C
:1012900000F072F905E0786800F065F9786800F010
:1012A00074F97B6800221A77BB6803F00803002BEF
:1012B00020D0FB6803F00803002B1BD07B681B6861
:1012C0006FF008021A617B6804221A777B681B683A
:1012D000DB6903F00303002B03D0786800F04CF9BE
:1012E00005E0786800F03FF9786800F04EF97B6817
:1012F00000221A77BB6803F01003002B20D0FB6894
:1013000003F01003002B1BD07B681B686FF01002EA
:101310001A617B6808221A777B681B68DB6903F413
:101320004073002B03D0786800F026F905E0786858
:1013300000F019F9786800F028F97B6800221A7724
:10134000BB6803F00103002B0CD0FB6803F0010322
:10135000002B07D07B681B686FF001021A61786868
:1013600003F0B6F9BB6803F08003002B0CD0FB68D8
:1013700003F08003002B07D07B681B686FF08002AE
:101380001A61786800F0A5FABB6803F04003002BEF
:101390000CD0FB6803F04003002B07D07B681B6870
:1013A0006FF040021A61786800F0F8F8BB6803F04B
:1013B0002003002B0CD0FB6803F02003002B07D088
:1013C0007B681B686FF020021A61786800F078FA79
:1013D00000BF1037BD4680BD80B584B000AF7860D7
:1013E00039600023FB737B6893F83C30012B01D1FB
:1013F0000223B4E07B68012283F83C207B68022250
:1014000083F83D207B681B689B68BB60BB6823F04A
:101410007703BB60BB6823F47F43BB607B681B68BA
:10142000BA689A603B681B68B3F5005F3ED0B3F5BD
:10143000005F00F28780B3F5805F00F08680B3F52F
:10144000805F7FD8702B1AD0702B7BD8602B50D048
:10145000602B77D8502B3CD0502B73D8402B58D0D2
:10146000402B6FD8302B64D0302B6BD8202B60D022
:10147000202B67D8002B5CD0102B5AD062E07B6801
:1014800018683B6899683B685A683B68DB6800F0FD
:101490008CF97B681B689B68BB60BB6843F0770373
:1014A000BB607B681B68BA689A604FE07B6818680D
:1014B0003B6899683B685A683B68DB6800F075F9DF
:1014C0007B681B689A687B681B6842F480429A605C
:1014D0003CE07B6818683B6859683B68DB681A46E3
:1014E00000F0ECF87B681B685021184600F043F9C7
:1014F0002CE07B6818683B6859683B68DB681A46D3
:1015000000F00AF97B681B686021184600F033F987
:101510001CE07B6818683B6859683B68DB681A46C2
:1015200000F0CCF87B681B684021184600F023F9D6
:101530000CE07B681A683B681B681946104600F08F
:101540001AF903E00123FB7300E000BF7B6801226E
:1015500083F83D207B68002283F83C20FB7B184603
:101560001037BD4680BD80B483B000AF786000BF47
:101570000C37BD4680BC704780B483B000AF786044
:1015800000BF0C37BD4680BC704780B483B000AF4D
:10159000786000BF0C37BD4680BC704780B483B014
:1015A00000AF786000BF0C37BD4680BC70470000BC
:1015B00080B485B000AF786039607B681B68FB60E1
:1015C0007B68394A934213D07B68384A93420FD0E4
:1015D0007B68B3F1804F0BD07B68354A934207D0CC
:1015E0007B68344A934203D07B68334A934208D1E4
:1015F000FB6823F07003FB603B685B68FA68134389
:10160000FB607B68284A934213D07B68274A934249
:101610000FD07B68B3F1804F0BD07B68244A934294
:1016200007D07B68234A934203D07B68224A9342C7
:1016300008D1FB6823F44073FB603B68DB68FA6801
:101640001343FB60FB6823F080023B685B69134334
:10165000FB607B68FA681A603B689A687B68DA62AC
:101660003B681A687B689A627B680F4A934203D092
:101670007B680E4A934203D13B681A697B681A6300
:101680007B6801225A617B681B6903F00103002B10
:1016900005D07B681B6923F001027B681A6100BFDB
:1016A0001437BD4680BC7047002C01400034014017
:1016B0000004004000080040000C004080B487B0E7
:1016C00000AFF860B9607A60FB681B6A7B61FB68F9
:1016D0001B6A23F00102FB681A62FB689B693B618D
:1016E0003B6923F0F0033B617B681B013A691343BC
:1016F0003B617B6923F00A037B617A69BB68134312
:101700007B61FB683A699A61FB687A691A6200BF7B
:101710001C37BD4680BC704780B487B000AFF8600E
:10172000B9607A60FB681B6A7B61FB681B6A23F007
:101730001002FB681A62FB689B693B613B6923F4FA
:1017400070433B617B681B033A6913433B617B69D0
:1017500023F0A0037B61BB681B017A6913437B61A3
:10176000FB683A699A61FB687A691A6200BF1C37A4
:10177000BD4680BC704780B485B000AF78603960EA
:101780007B689B68FB60FB6823F07003FB603A6832
:10179000FB68134343F00703FB607B68FA689A60B9
:1017A00000BF1437BD4680BC704780B487B000AF1F
:1017B000F860B9607A603B60FB689B687B617B691D
:1017C00023F47F437B613B681A027B681A43BB6842
:1017D00013437A6913437B61FB687A699A6000BF9F
:1017E0001C37BD4680BC704780B485B000AF7860C0
:1017F00039607B6893F83C30012B01D1022350E023
:101800007B68012283F83C207B68022283F83D201C
:101810007B681B685B68FB607B681B689B68BB60C0
:10182000FB6823F07003FB603B681B68FA68134396
:10183000FB607B681B68FA685A607B681B681B4A00
:10184000934218D07B681B68194A934213D07B6877
:101850001B68B3F1804F0ED07B681B68154A93421A
:1018600009D07B681B68144A934204D07B681B68CC
:10187000124A93420CD1BB6823F08003BB603B68E3
:101880005B68BA681343BB607B681B68BA689A6080
:101890007B68012283F83D207B68002283F83C208E
:1018A000002318461437BD4680BC7047002C014009
:1018B000003401400004004000080040000C0040DB
:1018C00080B483B000AF786000BF0C37BD4680BCE9
:1018D000704780B483B000AF786000BF0C37BD465E
:1018E00080BC704780B586B000AF78600023FB7580
:1018F00000233B610023BB600023FB607B68002B5F
:1019000001D10123CEE07B689B68002B7B689B6A3A
:10191000002B09D17B680022DA627B68002283F801
:101920002420786802F088FF786800F015FB0346F1
:10193000FB757B689B6A03F01003002B40F0A980C5
:10194000FB7D002B40F0A5807B689B6A23F48853C5
:1019500023F0020343F002027B689A627B685A68B4
:101960007B681B6851498B420AD17B68DB69B3F500
:10197000402F02D07B68DB6904E04FF4002301E0D4
:101980007B68DB691A437B681B7B5B001343BA6887
:101990001343BB607B689B68B3F5807F03D07B6893
:1019A0009B68012B02D14FF4807300E000233A6959
:1019B00013433B617B681B7D012B19D17B681B7B2B
:1019C000002B09D17B689B69013B5A033B69134398
:1019D00043F400633B610BE07B689B6A43F02002A9
:1019E0007B689A627B68DB6A43F001027B68DA629B
:1019F0007B681B685B6823F469417B681B683A69F4
:101A00000A435A607B681B689A68294B13407A68BE
:101A10001268B9680B4393607B689B68B3F5807F5D
:101A200003D07B689B68012B04D17B681B69013B59
:101A30001B05FB607B681B68DB6A23F470017B6815
:101A40001B68FA680A43DA627B681B689A68194B5C
:101A50001340BA689A420BD17B680022DA627B6835
:101A60009B6A23F0030343F001027B689A6218E04B
:101A70007B689B6A23F0120343F010027B689A6232
:101A80007B68DB6A43F001027B68DA620123FB7545
:101A900007E07B689B6A43F010027B689A6201232F
:101AA000FB75FB7D18461837BD4680BD003C0140E4
:101AB000FDF7E1FFFE0E1FFF80B586B000AFF860B6
:101AC000B9607A600023FB75FB681B68644A934227
:101AD00004D0FB681B68634A934206D1604B5B6885
:101AE00003F47023002B40F0B380FB6893F824309C
:101AF000012B01D10223AEE0FB68012283F82420F0
:101B0000F86800F0CFF90346FB75FB7D002B40F031
:101B10009A80FB689B6A23F4706323F0010343F40B
:101B20008072FB689A62FB681B684E4A934205D13B
:101B30004B4B5B6803F47023002B15D1FB689B6A49
:101B400023F48012FB689A62FB681B685B6803F4ED
:101B50008063002B26D0FB689B6A23F4405343F438
:101B60008052FB689A621DE0FB689B6A43F4801216
:101B7000FB689A62FB681B68394A934204D0FB6891
:101B80001B68384A93420DD1354B5B6803F4806380
:101B9000002B07D0FB689B6A23F4405343F4805228
:101BA000FB689A62FB689B6A03F48053002B06D0A3
:101BB000FB68DB6A23F00602FB68DA6202E0FB687E
:101BC0000022DA62FB68002283F82420FB681B6A8B
:101BD000254A9A62FB681B6A244ADA62FB681B6A20
:101BE000234A1A63FB681B686FF002021A60FB68E5
:101BF0001B689A68FB681B6842F480729A60FB68F5
:101C0000186AFB681B684C331946BA687B6801F098
:101C1000BBF9FB681B689B6803F46023B3F5602F76
:101C200008D1FB681B689A68FB681B6842F4A00235
:101C30009A600FE0FB681B689A68FB681B6842F4B7
:101C400080129A6006E0FB68002283F8242001E0FD
:101C50000123FB75FB7D18461837BD4680BD00BFCC
:101C60000024014000280140DB1F00085720000825
:101C70007320000880B483B000AF786000BF0C37D9
:101C8000BD4680BC704780B483B000AF786000BFB1
:101C90000C37BD4680BC704780B483B000AF78601D
:101CA00000BF0C37BD4680BC7047000080B485B0D3
:101CB00000AF786039600023FB730023BB607B6852
:101CC00093F82430012B01D10223E0E07B6801224C
:101CD00083F824203B685B68062B1CD87B681B6854
:101CE000596B3B685B685A1E13469B0013441F22C6
:101CF00002FA03F3DB4319403B6818683B685B68F2
:101D00005A1E13469B00134400FA03F27B681B68BB
:101D10000A435A633EE03B685B680C2B1CD87B6827
:101D20001B68196B3B685B68DA1F13469B00134402
:101D30001F2202FA03F3DB4319403B6818683B6833
:101D40005B68DA1F13469B00134400FA03F27B68BA
:101D50001B680A431A631DE07B681B68D96A3B68ED
:101D60005B68A3F10D0213469B0013441F2202FA85
:101D700003F3DB4319403B6818683B685B68A3F1D9
:101D80000D0213469B00134400FA03F27B681B68A4
:101D90000A43DA623B681B68092B1ED97B681B6803
:101DA000D9683B681B68A3F10A0213465B00134421
:101DB000072202FA03F3DB4319403B6898683B684B
:101DC0001B68A3F10A0213465B00134400FA03F2F6
:101DD0007B681B680A43DA6019E07B681B68196935
:101DE0003B681A6813465B001344072202FA03F3A8
:101DF000DB4319403B6898683B681A6813465B00F0
:101E0000134400FA03F27B681B680A431A613B68BB
:101E10001B68102B03D03B681B68112B32D17B68E9
:101E20001B681D4A934225D17B681B689B6803F49D
:101E30000003002B26D17B681B689A687B681B68AF
:101E400042F400029A603B681B68102B1AD1134BB6
:101E50001B68134AA2FB03239A0C13469B001344EE
:101E60005B00BB6002E0BB68013BBB60BB68002B52
:101E7000F9D107E07B689B6A43F020027B689A6295
:101E80000123FB737B68002283F82420FB7B184628
:101E90001437BD4680BC704700240140000000207C
:101EA00083DE1B4380B584B000AF78600023FB6005
:101EB0000023BB607B681B689B6803F00103012B58
:101EC00040D07B681B689A687B681B6842F00102FF
:101ED0009A601F4B1B681F4AA2FB03239B0CBB602D
:101EE00002E0BB68013BBB60BB68002BF9D100F08E
:101EF00003F9F8601FE000F0FFF80246FB68D31A10
:101F0000022B18D97B681B689B6803F00103012B27
:101F100011D07B689B6A43F010027B689A627B68F1
:101F2000DB6A43F001027B68DA627B68002283F897
:101F30002420012307E07B681B689B6803F00103F2
:101F4000012BD8D1002318461037BD4680BD00BFF5
:101F50000000002083DE1B4380B584B000AF7860B2
:101F60000023FB607B681B689B6803F00103012B67
:101F70002ED17B681B689A687B681B6822F001027F
:101F80009A6000F0B9F8F8601BE000F0B5F802467E
:101F9000FB68D31A022B14D97B681B689B6803F07B
:101FA0000103012B0DD17B689B6A43F010027B6813
:101FB0009A627B68DB6A43F001027B68DA62012384
:101FC00007E07B681B689B6803F00103012BDCD0F2
:101FD000002318461037BD4680BD80B584B000AFE1
:101FE00078607B685B6AFB60FB689B6A03F0500368
:101FF000002B27D1FB689B6A43F40072FB689A624E
:10200000FB681B689B6803F46023B3F5602F15D150
:10201000FB681B7B002B11D1FB689B6A23F4807249
:10202000FB689A62FB689B6A03F48053002B05D11E
:10203000FB689B6A43F00102FB689A62F868FFF74D
:1020400019FE04E0FB681B6A1B6B7868984700BFA9
:102050001037BD4680BD80B584B000AF78607B6826
:102060005B6AFB60F868FFF70EFE00BF1037BD46E5
:1020700080BD80B584B000AF78607B685B6AFB6030
:10208000FB689B6A43F04002FB689A62FB68DB6A6C
:1020900043F00402FB68DA62F868FFF7FDFD00BF59
:1020A0001037BD4680BD000080B500AF084B1B68EF
:1020B000074A43F010031360032001F0E6F90F20F4
:1020C00002F08AFE02F056FE0023184680BD00BFD3
:1020D0000020024080B400AF054B1B781A46054B28
:1020E0001B681344034A136000BFBD4680BC7047A1
:1020F00008000020A800002080B400AF024B1B683D
:102100001846BD4680BC7047A800002080B584B04A
:1021100000AF7860FFF7F0FFB8607B68FB60FB689A
:10212000B3F1FF3F05D00A4B1B781A46FB681344F6
:10213000FB6000BFFFF7E0FF0246BB68D31AFA68F6
:102140009A42F7D800BF00BF1037BD4680BD00BF20
:102150000800002080B586B000AF78607B68002B57
:1021600001D1012372E27B681B6803F00103002B9D
:1021700000F08780924B5B6803F00C03042B0CD0BB
:102180008F4B5B6803F00C03082B12D18C4B5B6800
:1021900003F48033B3F5803F0BD1894B1B6803F404
:1021A0000033002B6CD07B685B68002B68D1012367
:1021B0004CE27B685B68B3F5803F06D1804B1B68BF
:1021C0007F4A43F4803313602EE07B685B68002B0A
:1021D0000CD17B4B1B687A4A23F480331360784B15
:1021E0001B68774A23F4802313601DE07B685B68DB
:1021F000B3F5A02F0CD1724B1B68714A43F48023B6
:1022000013606F4B1B686E4A43F4803313600BE01E
:102210006B4B1B686A4A23F480331360684B1B685E
:10222000674A23F4802313607B685B68002B13D01C
:10223000FFF762FF386108E0FFF75EFF02463B6987
:10224000D31A642B01D9032300E25D4B1B6803F40E
:102250000033002BF0D014E0FFF74EFF386108E0A8
:10226000FFF74AFF02463B69D31A642B01D90323C7
:10227000ECE1534B1B6803F40033002BF0D100E07A
:1022800000BF7B681B6803F00203002B63D04C4B3C
:102290005B6803F00C03002B0BD0494B5B6803F029
:1022A0000C03082B1CD1464B5B6803F48033002BD6
:1022B00016D1434B1B6803F00203002B05D07B684B
:1022C0001B69012B01D00123C0E13D4B1B6823F0AA
:1022D000F8027B685B69DB00394913430B603AE025
:1022E0007B681B69002B20D0364B01221A60FFF758
:1022F00003FF386108E0FFF7FFFE02463B69D31A8F
:10230000022B01D90323A1E12D4B1B6803F002032B
:10231000002BF0D02A4B1B6823F0F8027B685B6926
:10232000DB00274913430B6015E0264B00221A609F
:10233000FFF7E2FE386108E0FFF7DEFE02463B6988
:10234000D31A022B01D9032380E11D4B1B6803F034
:102350000203002BF0D17B681B6803F00803002BFD
:102360003AD07B689B69002B19D0174B01221A6069
:10237000FFF7C2FE386108E0FFF7BEFE02463B6988
:10238000D31A022B01D9032360E10D4B5B6A03F0E2
:102390000203002BF0D0012000F0FEFA1CE00A4BF3
:1023A00000221A60FFF7A8FE38610FE0FFF7A4FED5
:1023B00002463B69D31A022B08D9032346E100BF2A
:1023C000001002400000424280044242924B5B6A8D
:1023D00003F00203002BE9D17B681B6803F00403C0
:1023E000002B00F0A6800023FB758B4BDB6903F00C
:1023F0008053002B0DD1884BDB69874A43F0805313
:10240000D361854BDB6903F08053BB60BB6801235C
:10241000FB75824B1B6803F48073002B18D17F4B34
:102420001B687E4A43F480731360FFF765FE3861D2
:1024300008E0FFF761FE02463B69D31A642B01D91D
:10244000032303E1754B1B6803F48073002BF0D06A
:102450007B68DB68012B06D16F4B1B6A6E4A43F029
:10246000010313622DE07B68DB68002B0CD16A4B03
:102470001B6A694A23F001031362674B1B6A664AB1
:1024800023F0040313621CE07B68DB68052B0CD18E
:10249000614B1B6A604A43F0040313625E4B1B6A84
:1024A0005D4A43F0010313620BE05B4B1B6A5A4A1F
:1024B00023F001031362584B1B6A574A23F00403AD
:1024C00013627B68DB68002B15D0FFF715FE3861BF
:1024D0000AE0FFF711FE02463B69D31A41F2883247
:1024E000934201D90323B1E04B4B1B6A03F0020373
:1024F000002BEED014E0FFF7FFFD38610AE0FFF794
:10250000FBFD02463B69D31A41F28832934201D95E
:1025100003239BE0404B1B6A03F00203002BEED128
:10252000FB7D012B05D13C4BDB693B4A23F08053FB
:10253000D3617B68DB69002B00F08780364B5B68DA
:1025400003F00C03082B61D07B68DB69022B46D1BA
:10255000334B00221A60FFF7CFFD386108E0FFF728
:10256000CBFD02463B69D31A022B01D903236DE050
:10257000294B1B6803F00073002BF0D17B681B6AAA
:10258000B3F5803F08D1244B5B6823F400327B68AD
:102590009B68214913434B601F4B5B6823F4741203
:1025A0007B68196A7B685B6A0B431B4913434B606A
:1025B0001B4B01221A60FFF79FFD386108E0FFF70F
:1025C0009BFD02463B69D31A022B01D903233DE050
:1025D000114B1B6803F00073002BF0D035E0104B5B
:1025E00000221A60FFF788FD386108E0FFF784FDDC
:1025F00002463B69D31A022B01D9032326E0064B7E
:102600001B6803F00073002BF0D11EE07B68DB69D0
:10261000012B07D1012319E0001002400070004097
:10262000600042420B4B5B68FB60FB6803F4803246
:102630007B681B6A9A4206D1FB6803F470127B68C0
:102640005B6A9A4201D0012300E000231846183744
:10265000BD4680BD0010024080B584B000AF7860F8
:1026600039607B68002B01D10123D0E06A4B1B68E5
:1026700003F007033A689A4210D9674B1B6823F0AE
:10268000070265493B6813430B60634B1B6803F00B
:1026900007033A689A4201D00123B8E07B681B68BF
:1026A00003F00203002B20D07B681B6803F00403B7
:1026B000002B05D0594B5B68584A43F4E0635360E4
:1026C0007B681B6803F00803002B05D0534B5B6845
:1026D000524A43F460535360504B5B6823F0F0025E
:1026E0007B689B684D4913434B607B681B6803F014
:1026F0000103002B40D07B685B68012B07D1474B5F
:102700001B6803F40033002B15D101237FE07B68A5
:102710005B68022B07D1414B1B6803F00073002B51
:1027200009D1012373E03D4B1B6803F00203002B2A
:1027300001D101236BE0394B5B6823F003027B6816
:102740005B68364913434B60FFF7D6FCF8600AE03C
:10275000FFF7D2FC0246FB68D31A41F2883293425B
:1027600001D9032353E02D4B5B6803F00C027B6817
:102770005B689B009A42EBD1274B1B6803F0070371
:102780003A689A4210D2244B1B6823F00702224970
:102790003B6813430B60204B1B6803F007033A6848
:1027A0009A4201D0012332E07B681B6803F00403E6
:1027B000002B08D0194B5B6823F4E0627B68DB6870
:1027C000164913434B607B681B6803F00803002B1A
:1027D00009D0124B5B6823F460527B681B69DB00F5
:1027E0000E4913434B6000F021F802460B4B5B6827
:1027F0001B0903F00F030A49CB5C22FA03F3094AD1
:102800001360094B1B68184602F0E6FA00231846CD
:102810001037BD4680BD00BF0020024000100240BE
:10282000408B0008000000200400002080B487B026
:1028300000AF0023FB600023BB6000237B6100230B
:102840007B6000233B611E4B5B68FB60FB6803F011
:102850000C03042B02D0082B03D027E0194B3B615B
:1028600027E0FB689B0C03F00F03174AD35C7B60E7
:10287000FB6803F48033002B10D0114B5B685B0CBA
:1028800003F00103114AD35CBB607B680D4A03FB74
:1028900002F2BB68B2FBF3F37B6104E07B680C4A95
:1028A00002FB03F37B617B693B6102E0054B3B610B
:1028B00000BF3B6918461C37BD4680BC704700BF4F
:1028C0000010024000127A00588B0008688B000844
:1028D00000093D0080B400AF024B1B681846BD469E
:1028E00080BC70470000002080B500AFFFF7F2FF0A
:1028F0000246054B5B681B0A03F007030349CB5CE8
:1029000022FA03F3184680BD00100240508B0008E5
:1029100080B500AFFFF7DEFF0246054B5B68DB0AC0
:1029200003F007030349CB5C22FA03F3184680BD8A
:1029300000100240508B000880B483B000AF786074
:1029400039607B680F221A60114B5B6803F0030249
:102950007B685A600E4B5B6803F0F0027B689A60FC
:102960000B4B5B6803F4E0627B68DA60084B5B68E2
:10297000DB0803F4E0627B681A61064B1B6803F016
:1029800007023B681A6000BF0C37BD4680BC704729
:10299000001002400020024080B485B000AF786093
:1029A0000A4B1B680A4AA2FB03235B0A7A6802FBF4
:1029B00003F3FB6000BFFB685A1EFA60002BF9D1DD
:1029C00000BF00BF1437BD4680BC70470000002028
:1029D000D34D621080B586B000AF786000233B61B4
:1029E0000023FB607B681B6803F00103002B7DD094
:1029F0000023FB754F4BDB6903F08053002B0DD197
:102A00004C4BDB694B4A43F08053D361494BDB6944
:102A100003F08053BB60BB680123FB75464B1B680A
:102A200003F48073002B18D1434B1B68424A43F4D4
:102A300080731360FFF760FB386108E0FFF75CFB11
:102A400002463B69D31A642B01D903236DE03A4B4C
:102A50001B6803F48073002BF0D0364B1B6A03F421
:102A60004073FB60FB68002B2ED07B685B6803F42F
:102A70004073FA689A4227D02E4B1B6A23F44073A6
:102A8000FB602E4B01221A602C4B00221A60294A4F
:102A9000FB681362FB6803F00103002B14D0FFF7FF
:102AA0002BFB38610AE0FFF727FB02463B69D31A8C
:102AB00041F28832934201D9032336E01D4B1B6A51
:102AC00003F00203002BEED01A4B1B6A23F4407272
:102AD0007B685B68174913430B62FB7D012B05D1B3
:102AE000144BDB69134A23F08053D3617B681B6866
:102AF00003F00203002B08D00E4B5B6823F4404226
:102B00007B689B680B4913434B607B681B6803F031
:102B10001003002B08D0074B5B6823F480027B680E
:102B20005B69044913434B60002318461837BD46C0
:102B300080BD00BF001002400070004040044242CF
:102B400080B48BB000AF7860396000237B620023D3
:102B50003B6263E101227B6A02FA03F37B613B681B
:102B60001B687A6913403B613A697B699A4240F07D
:102B700052813B685B688B4A934247D0894A9342B3
:102B80005ED8894A934241D0874A934258D8874AAF
:102B900093423BD0854A934252D8854A934235D0DE
:102BA000834A93424CD8834A93422FD0814A93421E
:102BB00046D8814A934229D07F4A934240D8122B6B
:102BC0001FD0122B3CD8112B11D0112B38D8032B2E
:102BD00033D0032B34D8022B0ED0022B30D8002B4D
:102BE00014D0012B2CD13B68DB683B6229E03B68A9
:102BF000DB6804333B6224E03B68DB6808333B62FC
:102C00001FE03B68DB680C333B621AE03B689B6863
:102C1000002B02D104233B6213E03B689B68012B2D
:102C200005D108233B627B687A691A6109E00823B1
:102C30003B627B687A695A6103E000233B6200E0F3
:102C400000BF3B69FF2B02D87B68FB6102E07B6819
:102C50000433FB613B69FF2B03D87B6A9B00BB619C
:102C600003E07B6A083B9B00BB61FB691A680F218C
:102C7000BB6901FA03F3DB431A40396ABB6901FA05
:102C800003F31A43FB691A603B685B6803F08053E7
:102C9000002B00F0C080494B9B69484A43F0010378
:102CA0009361464B9B6903F00103BB60BB68444AD8
:102CB0007B6A9B08023352F82330FB607B6A03F087
:102CC00003039B000F2202FA03F3DB43FA6813406D
:102CD000FB607B683B4A93421FD07B683A4A934231
:102CE00019D07B68394A934213D07B68384A9342A3
:102CF0000DD07B68374A934207D07B68364A9342AF
:102D000001D105230AE0062308E0042306E003239B
:102D100004E0022302E0012300E000237A6A02F0CB
:102D2000030292009340FA681343FB6024497B6AD4
:102D30009B080233FA6841F823203B685B6803F480
:102D40008013002B06D0254B9A6824493B69134316
:102D50008B6006E0214B9A683B69DB431F491340B7
:102D60008B603B685B6803F40013002B06D01B4BA1
:102D7000DA681A493B691343CB6006E0174BDA68FF
:102D80003B69DB4315491340CB603B685B6803F448
:102D90000033002B24D0114B5A6810493B69134370
:102DA0004B6024E0000032100000311000002210BF
:102DB000000021100000121000001110001002404D
:102DC0000000014000080140000C014000100140DB
:102DD0000014014000180140001C014000040140A3
:102DE000154B5A683B69DB43134913404B603B6802
:102DF0005B6803F48033002B06D00F4B1A680E4932
:102E00003B6913430B6006E00B4B1A683B69DB43DD
:102E1000094913400B607B6A01337B623B681A6887
:102E20007B6A22FA03F3002B7FF494AE00BF00BF4D
:102E30002C37BD4680BC70470004014080B485B08B
:102E400000AF78600B467B807B689A687B88134074
:102E5000002B02D00123FB7301E00023FB73FB7BFB
:102E600018461437BD4680BC704780B483B000AFAD
:102E700078600B467B8013467B707B78002B03D0F9
:102E80007A887B681A6103E07B881A047B681A6180
:102E900000BF0C37BD4680BC7047000080B485B0D1
:102EA00000AF78600023FB607B68002B01D1012319
:102EB00059E07B681B681A462D4B9A420FD87B68F5
:102EC0001B681A462B4B13442B4AA2FB03231B09F6
:102ED0009A007B681A647B68284ADA630EE07B6894
:102EE0001B681A46264B1344234AA2FB03231B09E3
:102EF0009A007B681A647B68224ADA637B68022244
:102F000083F821207B681B681B68FB60FB6823F447
:102F10007F5323F03003FB607B685A687B689B68B3
:102F20001A437B68DB681A437B681B691A437B681A
:102F30005B691A437B689B691A437B68DB691343AF
:102F4000FA681343FB607B681B68FA681A607B6849
:102F500000229A637B68012283F821207B6800228B
:102F600083F82020002318461437BD4680BC7047E4
:102F700007040240F8FFFDBFCDCCCCCC00000240DE
:102F8000F8FBFDBF0004024080B586B000AFF860DA
:102F9000B9607A603B600023FB75FB6893F82030D2
:102FA000012B01D102234BE0FB68012283F8202092
:102FB000FB6893F82130DBB2012B3AD1FB68022287
:102FC00083F82120FB6800229A63FB681B681A685B
:102FD000FB681B6822F001021A603B687A68B968D6
:102FE000F86800F075F9FB68DB6A002B08D0FB6815
:102FF0001B681A68FB681B6842F00E021A600FE03B
:10300000FB681B681A68FB681B6822F004021A60E0
:10301000FB681B681A68FB681B6842F00A021A60AA
:10302000FB681B681A68FB681B6842F001021A60A3
:1030300005E0FB68002283F820200223FB75FB7D5E
:1030400018461837BD4680BD80B485B000AF7860A3
:103050000023FB737B6893F82130DBB2022B08D08E
:103060007B6804229A637B68002283F82020012376
:1030700020E07B681B681A687B681B6822F00E02E0
:103080001A607B681B681A687B681B6822F0010263
:103090001A607B681A6C7B68DB6B012101FA02F213
:1030A0005A607B68012283F821207B68002283F824
:1030B0002020FB7B18461437BD4680BC70470000BB
:1030C00080B584B000AF78600023FB737B6893F811
:1030D0002130DBB2022B05D07B6804229A630123E6
:1030E000FB73D6E07B681B681A687B681B6822F05C
:1030F0000E021A607B681B681A687B681B6822F0E6
:1031000001021A607B681B681A46644B9A4258D9C0
:103110007B681B68624A93424FD07B681B68614A98
:10312000934248D07B681B685F4A934240D07B68DB
:103130001B685E4A934238D07B681B685C4A9342A6
:1031400030D07B681B685B4A934228D07B681B6841
:10315000524A934220D07B681B68574A934219D049
:103160007B681B68554A934212D07B681B68544A9F
:1031700093420AD07B681B68524A934202D14FF4B3
:1031800080531BE04FF4803318E04FF4807315E058
:10319000102313E0012311E04FF080730EE04FF491
:1031A00080130BE04FF4803308E04FF4805305E0C8
:1031B0004FF4807302E0102300E00123424A536081
:1031C00057E07B681B68364A93424FD07B681B6888
:1031D000344A934248D07B681B68334A934240D0BC
:1031E0007B681B68314A934238D07B681B68304A41
:1031F000934230D07B681B682E4A934228D07B686C
:103200001B68264A934220D07B681B682A4A934257
:1032100019D07B681B68294A934212D07B681B68CF
:10322000274A93420AD07B681B68264A934202D100
:103230004FF480531BE04FF4803318E04FF4807359
:1032400015E0102313E0012311E04FF080730EE02E
:103250004FF480130BE04FF4803308E04FF48053B9
:1032600005E04FF4807302E0102300E00123174AC9
:1032700053607B68012283F821207B68002283F859
:1032800020207B685B6B002B03D07B685B6B7868CE
:103290009847FB7B18461037BD4680BD8000024032
:1032A000080002401C00024030000240440002407E
:1032B000580002406C000240080402401C04024016
:1032C0003004024044040240000402400000024076
:1032D00080B485B000AFF860B9607A603B60FB688D
:1032E0001A6CFB68DB6B012101FA02F25A60FB6881
:1032F0001B683A685A60FB685B68102B08D1FB6852
:103300001B687A689A60FB681B68BA68DA6007E035
:10331000FB681B68BA689A60FB681B687A68DA60A9
:1033200000BF1437BD4680BC7047000080B485B034
:1033300000AF78607B6803F00703FB600C4BDB6831
:10334000BB60BA684FF6FF031340BB60FB681A020C
:10335000BB68134343F0BF6343F40033BB60044ACC
:10336000BB68D36000BF1437BD4680BC704700BF48
:1033700000ED00E080B400AF044BDB681B0A03F0F3
:1033800007031846BD4680BC704700BF00ED00E053
:1033900080B483B000AF0346FB7197F90730002B70
:1033A0000BDBFB7903F01F02064997F907305B0935
:1033B000012000FA02F241F8232000BF0C37BD467D
:1033C00080BC704700E100E080B483B000AF0346EA
:1033D0003960FB7197F90730002B0ADB3B68DAB2E2
:1033E0000C4997F907301201D2B20B4483F800233D
:1033F0000AE03B68DAB20849FB7903F00F03043BAB
:103400001201D2B20B441A7600BF0C37BD4680BC05
:10341000704700BF00E100E000ED00E080B489B03B
:1034200000AFF860B9607A60FB6803F007037B6166
:103430007B69033B042B04D87B69C3F10703FB6161
:1034400001E00423FB617B690433062B03D97B690C
:10345000033BBB6101E00023BB614FF0FF32FB691E
:1034600002FA03F3DA43BB681A40BB699A404FF093
:10347000FF31BB6901FA03F3D9437B680B40134367
:1034800018462437BD4680BC704780B582B000AF77
:1034900078607868FFF74AFF00BF0837BD4680BDF7
:1034A00080B586B000AF0346B9607A60FB73002335
:1034B0007B61FFF75FFF78617A68B9687869FFF729
:1034C000ADFF024697F90F3011461846FFF77CFF13
:1034D00000BF1837BD4680BD80B582B000AF03463F
:1034E000FB7197F907301846FFF752FF00BF083706
:1034F000BD4680BD80B582B000AF78607B68002B90
:1035000001D1012314E07B681B79DBB2002B05D1CC
:103510007B6800225A71786801F020FA7B680222E9
:103520001A717B6800221A617B6801221A710023DC
:1035300018460837BD4680BD80B586B000AFF8603C
:10354000B9607A603B60FB68002B01D1012392E0F7
:10355000FB685B79012B01D102238CE0FB6801221F
:103560005A71FB6802221A71BB68002B29D1FB68D3
:103570009B68434A9A62FB689B68424ADA62FB682E
:103580009B68414A1A63FB681B681A68FB681B68E2
:1035900042F480521A603B6A002B03D03B6A042B32
:1035A00005D009E0FB681B6808333B6133E0FB682A
:1035B0001B680C333B612EE0FB681B6810333B61DA
:1035C00029E0FB68DB68314A9A62FB68DB68304AB5
:1035D000DA62FB68DB682F4A1A63FB681B681A68AB
:1035E000FB681B6842F080521A603B6A002B03D0D4
:1035F0003B6A042B05D009E0FB681B6814333B6170
:1036000009E0FB681B6818333B6104E0FB681B683A
:103610001C333B6100BFBB68002B09D1FB68986875
:1036200079683B683A69FFF7AFFC0346FB7508E031
:10363000FB68D86879683B683A69FFF7A5FC0346E0
:10364000FB75FB6800225A71FB7D002B0CD1FB68D7
:103650001B681968BB6803F0100301229A40FB68DD
:103660001B680A431A6005E0FB681B6943F004020B
:10367000FB681A61FB7D18461837BD4680BD00BF48
:103680007F370008A1370008BD370008213800083F
:10369000433800085F38000880B483B000AF78601A
:1036A00000BF0C37BD4680BC704780B483B000AF0C
:1036B000786000BF0C37BD4680BC704780B483B0D3
:1036C00000AF786000BF0C37BD4680BC704780B447
:1036D00089B000AFF860B9607A600023FB77FB68BF
:1036E000002B02D0BB68002B01D1012342E0FB6814
:1036F0005B79012B01D102233CE0FB6801225A7166
:10370000FB6802221A71FB681B681B68BB617B683F
:1037100003F0100340F6FE7202FA03F3DB43BA69CA
:103720001340BB61BB681A68BB685B6813437B616D
:103730007B6803F010037A6902FA03F3BA69134352
:10374000BB61FB681B68BA691A60FB681B68196873
:103750007B6803F01003C02202FA03F3DA43FB682C
:103760001B680A401A60FB6801221A71FB6800227C
:103770005A71FB7F18462437BD4680BC704780B520
:1037800084B000AF78607B685B6AFB60F868FFF725
:1037900083FFFB6801221A7100BF1037BD4680BD50
:1037A00080B584B000AF78607B685B6AFB60F868C6
:1037B000FFF77BFF00BF1037BD4680BD80B584B0EA
:1037C00000AF78607B685B6AFB60FB681B6943F055
:1037D0000402FB681A61F868FFF770FFFB680122BA
:1037E0001A7100BF1037BD4680BD80B483B000AFF2
:1037F000786000BF0C37BD4680BC704780B483B092
:1038000000AF786000BF0C37BD4680BC704780B405
:1038100083B000AF786000BF0C37BD4680BC7047F6
:1038200080B584B000AF78607B685B6AFB60F86845
:10383000FFF7DBFFFB6801221A7100BF1037BD469E
:1038400080BD80B584B000AF78607B685B6AFB6048
:10385000F868FFF7D3FF00BF1037BD4680BD80B5C5
:1038600084B000AF78607B685B6AFB60FB681B69B3
:1038700043F00402FB681A61F868FFF7C8FFFB68B1
:1038800001221A7100BF1037BD4680BD80B582B0DD
:1038900000AF78607B68002B01D1012342E07B6898
:1038A00093F84130DBB2002B06D17B68002283F80D
:1038B0004020786801F0D0F97B68242283F8412009
:1038C0007B681B68DA687B681B6822F40052DA6048
:1038D000786800F061FD7B681B681A697B681B686B
:1038E00022F490421A617B681B685A697B681B68E6
:1038F00022F02A025A617B681B68DA687B681B68C1
:1039000042F40052DA607B6800225A647B6820220D
:1039100083F841207B68202283F842207B680022C4
:103920005A63002318460837BD4680BD80B58AB06B
:1039300002AFF860B9603B601346FB8000237B61F7
:10394000FB6893F84130DBB2202B75D1BB68002BAC
:1039500002D0FB88002B01D101236EE0FB6800221E
:103960005A64FB68212283F84120FEF7C5FB786189
:10397000FB68FA889A84FB68FA88DA84FB689B689B
:10398000B3F5805F08D1FB681B69002B04D10023CD
:10399000FB61BB68BB6103E0BB68FB610023BB61EB
:1039A0002EE03B6800937B6900228021F86800F0DC
:1039B000FFFA0346002B05D0FB68202283F8412044
:1039C00003233AE0FB69002B0BD1BB691B881A4625
:1039D000FB681B68C2F308025A60BB690233BB6113
:1039E00007E0FB691A78FB681B685A60FB690133C2
:1039F000FB61FB68DB8C9BB2013B9AB2FB68DA840B
:103A0000FB68DB8C9BB2002BCBD13B6800937B69BE
:103A100000224021F86800F0CBFA0346002B05D0C5
:103A2000FB68202283F84120032306E0FB68202264
:103A300083F84120002300E0022318462037BD46CA
:103A400080BD000080B5BAB000AF78607B681B68AD
:103A50001B68C7F8E4307B681B68DB68C7F8E03098
:103A60007B681B685B69C7F8DC300023C7F8D83077
:103A70000023C7F8D430D7F8E43003F00F03C7F8B9
:103A8000D830D7F8D830002B0FD1D7F8E43003F076
:103A90002003002B09D0D7F8E03003F02003002BDF
:103AA00003D0786800F0BAFB59E2D7F8D830002B81
:103AB00000F0DC80D7F8DC3003F00103002B06D1E6
:103AC000D7F8E03003F49073002B00F0CF80D7F8E4
:103AD000E43003F00103002B0BD0D7F8E03003F4FF
:103AE0008073002B05D07B685B6C43F001027B6820
:103AF0005A64D7F8E43003F00403002B0BD0D7F856
:103B0000DC3003F00103002B05D07B685B6C43F0D5
:103B100002027B685A64D7F8E43003F00203002BFA
:103B20000BD0D7F8DC3003F00103002B05D07B6805
:103B30005B6C43F004027B685A64D7F8E43003F00E
:103B40000803002B11D0D7F8E03003F02003002B3E
:103B500005D1D7F8DC3003F00103002B05D07B68DA
:103B60005B6C43F008027B685A647B685B6C002BDB
:103B700000F0F081D7F8E43003F02003002B08D0E8
:103B8000D7F8E03003F02003002B02D0786800F073
:103B900045FB7B681B685B6903F04003C3F380133C
:103BA000DBB2C7F8D4307B685B6C03F00803002BF2
:103BB00003D1D7F8D430002B4FD0786800F051FAF9
:103BC0007B681B685B6903F04003002B41D07B6876
:103BD0001B681433C7F89C30D7F89C3053E8003F7B
:103BE000C7F89830D7F8983023F04003C7F8D030A2
:103BF0007B681B681433D7F8D020C7F8A820C7F813
:103C0000A430D7F8A410D7F8A82041E80023C7F8BB
:103C1000A030D7F8A030002BD9D17B68DB6B002B0C
:103C200013D07B68DB6B7E4A5A637B68DB6B18467C
:103C3000FFF746FA0346002B16D07B68DB6B5B6B05
:103C40007A68D26B104698470EE0786800F09CF9CD
:103C50000AE0786800F098F906E0786800F094F9D6
:103C60007B6800225A6475E100BF73E17B681B6BBF
:103C7000012B40F04F81D7F8E43003F01003002B04
:103C800000F04881D7F8E03003F01003002B00F07B
:103C900041810023BB607B681B681B68BB607B683D
:103CA0001B685B68BB60BB687B681B685B6903F073
:103CB0004003002B00F0B6807B68DB6B1B685B6801
:103CC000A7F8BE30B7F8BE30002B00F045817B6806
:103CD0009B8DB7F8BE209A4280F03E817B68B7F892
:103CE000BE20DA857B68DB6B9B69202B00F0888027
:103CF0007B681B680C33C7F88830D7F8883053E8E6
:103D0000003FC7F88430D7F8843023F48073C7F8B5
:103D1000B8307B681B680C33D7F8B820C7F89420FC
:103D2000C7F89030D7F89010D7F8942041E80023D6
:103D3000C7F88C30D7F88C30002BD9D17B681B6842
:103D400014337B677B6F53E8003F3B673B6F23F087
:103D50000103C7F8B4307B681B681433D7F8B4206C
:103D6000C7F88020FB67F96FD7F8802041E800236F
:103D7000BB67BB6F002BE1D17B681B6814333B66CC
:103D80003B6E53E8003FFB65FB6D23F04003C7F833
:103D9000B0307B681B681433D7F8B020FA66BB6676
:103DA000B96EFA6E41E800237B667B6E002BE3D18F
:103DB0007B68202283F842207B6800221A637B689C
:103DC0001B680C33FB64FB6C53E8003FBB64BB6CAB
:103DD00023F01003C7F8AC307B681B680C33D7F8AE
:103DE000AC20BA657B65796DBA6D41E800233B650F
:103DF0003B6D002BE3D17B68DB6B1846FFF724F9A2
:103E00007B6802225A637B689A8D7B68DB8D9BB24C
:103E1000D31A9BB21946786800F0BFF89CE000BF47
:103E2000274100087B689A8D7B68DB8D9BB2D31A93
:103E3000A7F8CE307B68DB8D9BB2002B00F08E8024
:103E4000B7F8CE30002B00F089807B681B680C33FC
:103E5000BB63BB6B53E8003F7B637B6B23F49073C6
:103E6000C7F8C8307B681B680C33D7F8C8207A6461
:103E70003B64396C7A6C41E80023FB63FB6B002BDD
:103E8000E3D17B681B6814337B627B6A53E8003F95
:103E90003B623B6A23F00103C7F8C4307B681B68B0
:103EA0001433D7F8C4203A63FB62F96A3A6B41E8ED
:103EB0000023BB62BB6A002BE3D17B68202283F81E
:103EC00042207B6800221A637B681B680C333B61CD
:103ED0003B6953E8003FFB60FB6823F01003C7F821
:103EE000C0307B681B680C33D7F8C020FA61BB6117
:103EF000B969FA6941E800237B617B69002BE3D152
:103F00007B6802225A63B7F8CE301946786800F011
:103F100044F823E0D7F8E43003F08003002B09D005
:103F2000D7F8E03003F08003002B03D0786800F06E
:103F30000EF914E0D7F8E43003F04003002B0ED064
:103F4000D7F8E03003F04003002B08D0786800F089
:103F50004DF904E000BF02E000BF00E000BFE83719
:103F6000BD4680BD80B483B000AF786000BF0C3721
:103F7000BD4680BC704780B483B000AF786000BF9E
:103F80000C37BD4680BC704780B483B000AF78600A
:103F900000BF0C37BD4680BC704780B483B000AF13
:103FA00078600B467B8000BF0C37BD4680BC7047F5
:103FB00080B586B000AFF860B9603B601346FB7116
:103FC0003BE03B6AB3F1FF3F37D0FEF795F802467E
:103FD0003B68D31A3A6A9A4202D33B6A002B01D15A
:103FE00003233AE0FB681B68DB6803F00403002B43
:103FF00023D0BB68802B20D0BB68402B1DD0FB6832
:104000001B681B6803F00803082B16D100237B6193
:10401000FB681B681B687B61FB681B685B687B61D6
:104020007B69F86800F01DF8FB6808225A64FB6899
:10403000002283F8402001230FE0FB681B681A6808
:10404000BB681340BA689A420CBF01230023DBB25D
:104050001A46FB799A42B4D0002318461837BD4659
:1040600080BD80B495B000AF78607B681B680C336E
:104070007B637B6B53E8003F3B633B6B23F49073A4
:10408000FB647B681B680C33FA6C3A64FB63F96B66
:104090003A6C41E80023BB63BB6B002BE5D17B6826
:1040A0001B6814333B623B6A53E8003FFB61FB69CA
:1040B00023F00103BB647B681B681433BA6CFA629B
:1040C000BB62B96AFA6A41E800237B627B6A002B13
:1040D000E5D17B681B6B012B19D17B681B680C3306
:1040E000FB60FB6853E8003FBB60BB6823F0100334
:1040F0007B647B681B680C337A6CBA617B6179697D
:10410000BA6941E800233B613B69002BE5D17B683C
:10411000202283F842207B6800221A6300BF5437B4
:10412000BD4680BC704780B584B000AF78607B68C6
:104130005B6AFB60FB680022DA85FB680022DA8498
:10414000F868FFF721FF00BF1037BD4680BD80B47F
:1041500085B000AF78607B6893F84130DBB2212BEB
:104160003ED17B689B68B3F5805F14D17B681B6987
:10417000002B10D17B681B6AFB60FB681B881A460A
:104180007B681B68C2F308025A607B681B6A9A1C32
:104190007B681A6208E07B681B6A591C7A681162A6
:1041A0001A787B681B685A607B68DB8C9BB2013B8A
:1041B0009BB27A681946D184002B0FD17B681B68AB
:1041C000DA687B681B6822F08002DA607B681B6813
:1041D000DA687B681B6842F04002DA60002300E086
:1041E000022318461437BD4680BC704780B582B0A4
:1041F00000AF78607B681B68DA687B681B6822F018
:104200004002DA607B68202283F841207868FFF75B
:10421000A9FE002318460837BD4680BD80B58CB086
:1042200000AF78607B6893F84230DBB2222B40F01D
:10423000AE807B689B68B3F5805F17D17B681B6994
:10424000002B13D10023FB627B689B6ABB627B68F7
:104250001B685B689BB2C3F308039AB2BB6A1A80FF
:104260007B689B6A9A1C7B689A6226E07B689B6AE3
:10427000FB620023BB627B689B68B3F5805F07D05D
:104280007B689B68002B0AD17B681B69002B06D1D9
:104290007B681B685B68DAB2FB6A1A7008E07B68AF
:1042A0001B685B68DBB203F07F03DAB2FB6A1A704B
:1042B0007B689B6A5A1C7B689A627B68DB8D9BB229
:1042C000013B9BB27A681946D185002B5DD17B6892
:1042D0001B68DA687B681B6822F02002DA607B6862
:1042E0001B68DA687B681B6822F48072DA607B687E
:1042F0001B685A697B681B6822F001025A617B685F
:10430000202283F842207B6800225A637B681B6B63
:10431000012B35D17B6800221A637B681B680C3344
:104320007B617B6953E8003F3B613B6923F01003ED
:104330007B627B681B680C337A6A3A62FB61F969BD
:104340003A6A41E80023BB61BB69002BE5D17B6879
:104350001B681B6803F01003102B0AD10023FB60BD
:104360007B681B681B68FB607B681B685B68FB6085
:10437000FB687B689B8D19467868FFF70EFE02E0AC
:104380007868FFF7F8FD002302E0002300E0022335
:1043900018463037BD4680BD80B584B000AF786028
:1043A0007B681B681B6923F440517B68DA687B6873
:1043B0001B680A431A617B689A687B681B691A4309
:1043C0007B685B691343BB607B681B68DB6823F415
:1043D000B05323F00C037A681268B9680B43D360BA
:1043E0007B681B685B6923F440717B689A697B6812
:1043F0001B680A435A617B681B682C4A934203D1AD
:10440000FEF786FAF86002E0FEF76EFAF860FA68E6
:1044100013469B0013449A001A447B685B689B0018
:10442000B2FBF3F3224AA2FB03235B091901FA68EA
:1044300013469B0013449A001A447B685B689B00F8
:10444000B2FBF3F21A4BA3FB02035B09642000FBEF
:1044500003F3D31A1B013233154AA2FB03235B0972
:1044600003F0F0031944FA6813469B0013449A00C2
:104470001A447B685B689B00B2FBF3F20C4BA3FB16
:1044800002035B09642000FB03F3D31A1B013233E0
:10449000074AA2FB03235B0903F00F027B681B683A
:1044A0000A449A6000BF1037BD4680BD0038014005
:1044B0001F85EB510000000090B583B000AF0023D2
:1044C000FB8036E0FB881846FCF798F81EA3D3E97A
:1044D0000023FCF7FDF802460B46104619464FF044
:1044E00000021B4BFCF71EFA02460B46104619460B
:1044F00002F034FA02460B4610461946FCF7AAFBB6
:1045000003463B6013493868FBF772FE03464FF0E1
:104510008A411846FCF7F4FB0346FC881846FCF772
:10452000F7FC03469AB20C4B23F81420FB880133A6
:10453000FB80FB88B3F5806FC4D300BF00BF0C378E
:10454000BD4690BDAFF30080182D4454FB211940A7
:104550000000904000E0FF44AC00002080B584B033
:1045600002AFFDF7A1FD00F055F800F0C9F800F02A
:104570005DFA00F0C9F900F07BFA00F043FB00F0AF
:104580001DF900F0C1FA00237B6012E000224021F7
:104590001948FEF76AFCC820FDF7B8FD012240214A
:1045A0001548FEF762FCC820FDF7B0FD7B680133BB
:1045B0007B607B68022BE9DDFFF77EFF0023009321
:1045C0004FF480630D4A00210D48FEF7B5FF0D48FA
:1045D000FCF75AFD4FF4807200210B4803F0F8FC01
:1045E000802209490948FDF767FA0948FCF74CFDA4
:1045F00002F094F900BFFDE7000C0140AC00002080
:10460000200A0020780A0020AC080020AC09002015
:10461000C00A002080B596B000AF07F13003282211
:104620000021184603F0D4FC07F11C0300221A6095
:104630005A609A60DA601A613B1D00221A605A6063
:104640009A60DA601A615A6101233B634FF4803348
:104650007B630023BB6301233B640223FB644FF4B1
:1046600080333B654FF4E0137B6507F13003184658
:10467000FDF770FD0346002B01D000F03BF80F233F
:10468000FB6102233B6200237B624FF48063BB62C9
:104690000023FB6207F11C0302211846FDF7DCFF33
:1046A0000346002B01D000F025F802237B604FF475
:1046B0000043FB603B1D1846FEF78CF90346002BB8
:1046C00001D000F017F800BF5837BD4680BD00008C
:1046D00080B582B000AF78607B681B68044A934263
:1046E00001D1FDF7F7FC00BF0837BD4680BD00BF14
:1046F0000014004080B400AF72B600BF00BFFDE7F9
:1047000080B588B000AF07F1100300221A605A602C
:104710009A60DA60274B9B69264A43F01003936145
:10472000244B9B6903F01003FB60FB68214B9B69E2
:10473000204A43F0040393611E4B9B6903F004037A
:10474000BB60BB681B4B9B691A4A43F0080393612B
:10475000184B9B6903F008037B607B6801224021B2
:104760001548FEF782FB00224FF440711248FEF715
:104770007CFB40233B6101237B610023BB6103235E
:10478000FB6107F1100319460B48FEF7D9F94FF406
:1047900040733B6111237B610023BB610323FB61F9
:1047A00007F1100319460448FEF7CAF900BF203785
:1047B000BD4680BD00100240000C014080B584B0B1
:1047C00000AF3B1D00221A605A609A60184B194ACC
:1047D0001A60174B00229A60154B00221A73144B73
:1047E00000221A75124B4FF40022DA61104B00229E
:1047F0005A600F4B01221A610D48FDF773F803460A
:10480000002B01D0FFF776FF00237B600123BB6004
:104810000023FB603B1D19460548FDF747FA034698
:10482000002B01D0FFF766FF00BF1037BD4680BDEB
:10483000AC0900200024014080B588B000AF78604A
:1048400007F1100300221A605A609A60DA607B68F0
:104850001B68284A934249D1274B9B69264A43F457
:1048600000739361244B9B6903F40073FB60FB6846
:10487000214B9B69204A43F0040393611E4B9B69C3
:1048800003F00403BB60BB6801233B6103237B612E
:1048900007F1100319461948FEF752F9184B194A47
:1048A0001A60174B00225A60154B00229A60144B75
:1048B0008022DA60124B4FF480721A61104B4FF471
:1048C00080625A610E4B20229A610D4B0022DA6100
:1048D0000B48FEF7E3FA0346002B01D0FFF70AFF6F
:1048E0007B68074A1A62064A7B68536200BF20371A
:1048F000BD4680BD00240140001002400008014078
:10490000DC0900200800024080B582B000AF3B46C1
:1049100000221A605A600F4B0F4A1A600D48FEF7CA
:10492000E9FD0346002B01D0FFF7E4FE24233B60A2
:1049300000237B603B46002219460648FEF7C7FE6F
:104940000346002B01D0FFF7D5FE00BF0837BD4658
:1049500080BD00BF200A00200074004080B588B0F0
:1049600000AF786007F1100300221A605A609A6065
:10497000DA607B681B68284A934249D1274BDB6980
:10498000264A43F00053D361244BDB6903F0005304
:10499000FB60FB68214B9B69204A43F00403936151
:1049A0001E4B9B6903F00403BB60BB6810233B6193
:1049B00003237B6107F1100319461948FEF7C0F87D
:1049C000184B194A1A60174B10225A60154B0022D7
:1049D0009A60144B8022DA60124B4FF480721A6195
:1049E000104B4FF480625A610E4B20229A610D4B9E
:1049F0000022DA610B48FEF751FA0346002B01D082
:104A0000FFF778FE7B68074A9A60064A7B68536224
:104A100000BF2037BD4680BD00740040001002403A
:104A200000080140340A00203004024080B483B002
:104A300000AF0E4B5B690D4A43F0020353610B4B11
:104A40005B6903F002037B607B68084B5B69074A84
:104A500043F001035361054B5B6903F001033B60C5
:104A60003B6800BF0C37BD4680BC70470010024059
:104A700080B586B000AF07F1080300221A605A60C3
:104A80009A60DA603B4600221A605A601D4B4FF074
:104A900080421A601B4B00225A601A4B00229A6017
:104AA000184B4722DA60174B00221A61154B8022FF
:104AB0009A611448FCF798FA0346002B01D0FFF7DF
:104AC00019FE4FF48053BB6007F1080319460D48E7
:104AD000FCF782FC0346002B01D0FFF70BFE2023DE
:104AE0003B6000237B603B4619460648FCF77CFE92
:104AF0000346002B01D0FFF7FDFD00BF1837BD4670
:104B000080BD00BF780A002080B586B000AF07F1F5
:104B1000080300221A605A609A60DA603B4600225D
:104B20001A605A601D4B1E4A1A601C4B47225A607D
:104B30001A4B00229A60194B4FF47A72DA60174BC5
:104B400000221A61154B00229A611448FCF74CFAB6
:104B50000346002B01D0FFF7CDFD4FF48053BB601F
:104B600007F1080319460D48FCF736FC0346002BF5
:104B700001D0FFF7BFFD20233B6000237B603B4655
:104B800019460648FCF730FE0346002B01D0FFF71C
:104B9000B1FD00BF1837BD4680BD00BFC00A002070
:104BA0000004004080B485B000AF78607B681B686B
:104BB000B3F1804F0CD1114BDB69104A43F0010374
:104BC000D3610E4BDB6903F00103FB60FB6810E06F
:104BD0007B681B680A4A93420BD1084BDB69074A82
:104BE00043F00203D361054BDB6903F00203BB60B2
:104BF000BB6800BF1437BD4680BC70470010024040
:104C00000004004080B500AF114B124A1A60104BEF
:104C10004FF4E1325A600E4B00229A600C4B002296
:104C2000DA600B4B00221A61094B0C225A61084BC7
:104C300000229A61064B0022DA610548FEF726FE43
:104C40000346002B01D0FFF755FD00BF80BD00BF1C
:104C5000080B00200038014080B588B000AF7860B4
:104C600007F1100300221A605A609A60DA607B68CC
:104C70001B68204A934239D11F4B9B691E4A43F45B
:104C8000804393611C4B9B6903F48043FB60FB688A
:104C9000194B9B69184A43F004039361164B9B69B7
:104CA00003F00403BB60BB684FF400733B61022355
:104CB0007B610323FB6107F1100319460F48FDF7E1
:104CC0003FFF4FF480633B6100237B610023BB61A6
:104CD00007F1100319460948FDF732FF00220021B1
:104CE0002520FEF7DDFB2520FEF7F6FB00BF203771
:104CF000BD4680BD00380140001002400008014060
:104D000080B400AF00BFFDE780B400AF00BFFDE797
:104D100080B400AF00BFFDE780B400AF00BFFDE787
:104D200080B400AF00BFFDE780B400AF00BFBD4658
:104D300080BC704780B500AF00F0D0FE0346012B69
:104D400001D001F039F800BF80BD000080B500AF90
:104D50000248FEF777FE00BF80BD00BF080B0020B1
:104D600080B500AF0248FCF747FA00BF80BD00BF26
:104D7000500B002080B485B000AF154B9B69144ADE
:104D800043F001039361124B9B6903F00103BB6085
:104D9000BB680F4BDB690E4A43F08053D3610C4B69
:104DA000DB6903F080537B607B680A4B5B68FB60C8
:104DB000FB6823F0E063FB60FB6843F00073FB607B
:104DC000044AFB68536000BF1437BD4680BC70477F
:104DD000001002400000014080B58EB000AF786046
:104DE0000023FB620023BB62002387F83330344B7F
:104DF000DB69334A43F02003D361314BDB6903F0B5
:104E00002003FB60FB6807F1100207F11403114651
:104E10001846FDF791FD3B6AFB62FB6A002B03D14C
:104E2000FDF762FD786304E0FDF75EFD03465B007D
:104E30007B637B6B234AA2FB03239B0C013BBB627E
:104E4000214B224A1A60204B40F2E732DA601E4AB8
:104E5000BB6A53601C4B00221A611B4B00229A60F4
:104E6000194B00229A611848FCF7BEF8034687F8F0
:104E7000333097F83330002B1BD11348FCF75CF923
:104E8000034687F8333097F83330002B11D13720A1
:104E9000FEF722FB7B680F2B08D8002279683720A9
:104EA000FEF7FEFA0A4A7B68136002E0012387F8E6
:104EB000333097F8333018463837BD4680BD00BFD1
:104EC0000010024083DE1B43500B00200014004002
:104ED0000400002080B586B000AF7860144A154BFE
:104EE000D31A7B617B693B61134B1B68002B02D19A
:104EF000114B124A1A60104B1A687B6813443A69C6
:104F00009A4207D203F0C2F803460C221A604FF00F
:104F1000FF3309E0084B1B68FB60074B1A687B688E
:104F20001344054A1360FB6818461837BD4680BD18
:104F30000000012000040000980B002020520020F7
:104F400080B582B000AF7860391D0A230122044881
:104F5000FEF7ECFC7B6818460837BD4680BD00BFF5
:104F6000080B002080B586B000AFF860B9607A60A9
:104F700000237B610AE0AFF300800146BB685A1C46
:104F8000BA60CAB21A707B6901337B617A697B6847
:104F90009A42F0DB7B6818461837BD4680BD80B565
:104FA00086B000AFF860B9607A6000237B6109E0E9
:104FB000BB685A1CBA601B781846FFF7C1FF7B69B3
:104FC00001337B617A697B689A42F1DB7B68184622
:104FD0001837BD4680BD80B483B000AF78604FF015
:104FE000FF3318460C37BD4680BC704780B483B091
:104FF00000AF786039603B684FF400525A6000237C
:1050000018460C37BD4680BC704780B483B000AFF3
:105010007860012318460C37BD4680BC704780B4C9
:1050200085B000AFF860B9607A6000231846143785
:10503000BD4680BC70470000FBF7D0FF0B480C4911
:105040000C4A002302E0D458C4500433C4188C42E4
:10505000F9D3094A094C002301E013600432A2424B
:10506000FBD303F019F8FFF779FA7047000000202E
:105070008C000020848D00088C0000201C52002031
:10508000FEE780B483B000AF78607B6803F108026C
:105090007B685A607B684FF0FF329A607B6803F14F
:1050A00008027B68DA607B6803F108027B681A619A
:1050B0007B6800221A6000BF0C37BD4680BC704779
:1050C00080B483B000AF78607B6800221A6100BFB3
:1050D0000C37BD4680BC704780B485B000AF7860A7
:1050E00039607B685B68FB603B68FA685A60FB6804
:1050F0009A683B689A60FB689B683A685A60FB68EC
:105100003A689A603B687A681A617B681B685A1C27
:105110007B681A6000BF1437BD4680BC704780B4FE
:1051200085B000AF786039603B681B68BB60BB68C6
:10513000B3F1FF3F03D17B681B69FB600CE07B6828
:105140000833FB6002E0FB685B68FB60FB685B6840
:105150001B68BA689A42F6D2FB685A683B685A6084
:105160003B685B683A689A603B68FA689A60FB68DB
:105170003A685A603B687A681A617B681B685A1CF7
:105180007B681A6000BF1437BD4680BC704780B48E
:1051900085B000AF78607B681B69FB607B685B68EB
:1051A0007A6892689A607B689B687A6852685A60ED
:1051B000FB685B687A689A4203D17B689A68FB68EF
:1051C0005A607B6800221A61FB681B685A1EFB68E4
:1051D0001A60FB681B6818461437BD4680BC7047D0
:1051E00080B58CB004AFF860B9603B601346FB80BB
:1051F000FB889B00184600F01BFE78617B69002B42
:105200000ED0542000F014FEF861FB69002B03D08F
:10521000FB697A691A6305E0786900F0A3FE01E092
:105220000023FB61FB69002B13D0FA880023039352
:10523000FB690293FB6A0193BB6A00933B68B96800
:10524000F86800F00EF8F86900F08CF80123BB61F3
:1052500002E04FF0FF33BB61BB6918462037BD4603
:1052600080BD80B586B000AFF860B9607A603B6001
:10527000BB6A186B7B689B001A46A52102F0A8FE4A
:10528000BB6A1A6B7B6803F18043013B9B001344AC
:105290003B613B6923F007033B61BB68002B1FD0D8
:1052A00000237B6112E0BA687B6913441978BA6AFB
:1052B0007B69134434330A461A70BA687B69134415
:1052C0001B78002B06D07B6901337B617B690F2B38
:1052D000E9D900E000BFBB6A002283F8432003E065
:1052E000BB6A002283F834203B6A042B01D90423D3
:1052F0003B62BB6A3A6ADA62BB6A04331846FFF75C
:10530000DFFEBB6A18331846FFF7DAFEBB6ABA6ADB
:105310001A613B6AC3F10502BB6A9A61BB6ABA6A49
:105320005A62BB6A4C3304220021184602F050FE38
:10533000BB6A503301220021184602F049FE3A6848
:10534000F968386900F04EFC0246BB6A1A607B6A55
:10535000002B02D07B6ABA6A1A6000BF1837BD46BC
:1053600080BD000080B582B000AF786000F0C6FC60
:105370002C4B1B6801332B4A13602B4B1B68002BF3
:1053800009D1294A7B681360264B1B68012B10D179
:1053900000F0D4FA0DE0254B1B68002B09D1224BFD
:1053A0001B68DA6A7B68DB6A9A4202D81E4A7B680D
:1053B00013601F4B1B6801331D4A13601C4B1A6896
:1053C0007B685A647B68DB6A01229A40194B1B6830
:1053D0001343184A13607B68DA6A13469B00134430
:1053E0009B00154A1A447B68043319461046FFF7A0
:1053F00073FE00F09DFC0D4B1B68002B0ED00A4B7A
:105400001B68DA6A7B68DB6A9A4207D20B4B4FF063
:1054100080521A60BFF34F8FBFF36F8F00BF083702
:10542000BD4680BD740C00209C0B0020800C002029
:10543000900C00207C0C0020A00B002004ED00E06C
:1054400080B584B000AF786000F058FC7B68002B1A
:1054500003D1324B1B68FB6001E07B68FB60FB689B
:1054600004331846FFF793FE0346002B15D1FB6863
:10547000DA6A2B4913469B0013449B000B441B68BC
:10548000002B0AD1FB68DB6A012202FA03F3DA433C
:10549000244B1B681340234A1360FB689B6A002B54
:1054A00004D0FB6818331846FFF771FE1E4B1B68CB
:1054B00001331D4A1360194B1B68FA689A420BD1DD
:1054C000FB68043319461948FFF706FE184B1B68A2
:1054D0000133174A136009E0164B1B68013B154A5C
:1054E0001360F86800F0D0FA00F0DEFA00F020FC5B
:1054F000114B1B68002B0CD0084B1B68FA689A42B2
:1055000007D10E4B4FF080521A60BFF34F8FBFF39D
:105510006F8F00BF1037BD4680BD00BF9C0B0020C1
:10552000A00B00207C0C0020900C0020480C0020D8
:105530005C0C0020740C0020800C002004ED00E0C6
:1055400080B584B000AF78600023FB607B68002BDF
:1055500008D000F051F80021786800F0DDFA00F082
:1055600059F8F860FB68002B07D1064B4FF08052CA
:105570001A60BFF34F8FBFF36F8F00BF1037BD4668
:1055800080BD00BF04ED00E080B584B002AF144BD5
:105590000193002300930023802212491248FFF751
:1055A0001FFE78607B68012B15D14FF0500383F309
:1055B0001188BFF36F8FBFF34F8F3B6000BF0B4B62
:1055C0004FF0FF321A600A4B01221A60094B002289
:1055D0001A6000F073FB00BF0837BD4680BD00BFF6
:1055E000980C0020F08A00080D590008940C002047
:1055F000800C0020780C002080B400AF044B1B68A6
:105600000133034A136000BFBD4680BC704700BF32
:105610009C0C002080B584B000AF0023FB60002309
:10562000BB6000F06BFB394B1B68013B374A1360D2
:10563000364B1B68002B61D1354B1B68002B5DD0AE
:105640002EE0344BDB68DB68FB60FB6818331846E0
:10565000FFF79DFDFB6804331846FFF798FDFB68D4
:10566000DB6A01229A402C4B1B6813432A4A1360C1
:10567000FB68DA6A13469B0013449B00274A1A44CE
:10568000FB68043319461046FFF726FDFB68DA6A0B
:10569000234B1B68DB6A9A4202D3224B01221A6019
:1056A0001C4B1B68002BCCD1FB68002B01D000F0F9
:1056B000FBF91D4B1B687B607B68002B10D000F052
:1056C00037F80346002B02D0164B01221A607B6884
:1056D000013B7B607B68002BF1D1134B00221A60E9
:1056E000104B1B68002B09D00123BB600F4B4FF000
:1056F00080521A60BFF34F8FBFF36F8F00F018FB1B
:10570000BB6818461037BD4680BD00BF9C0C00200A
:10571000740C0020340C00207C0C0020A00B002016
:105720009C0B0020880C0020840C002004ED00E07D
:1057300080B586B000AF00237B61464B1B68002B11
:105740007DD1454B1B6801333B61434A3B69136084
:105750003B69002B10D1414B1B68FB60404B1B6821
:105760003E4A13603E4AFB6813603E4B1B680133A0
:105770003C4A136000F098F93B4B1B683A699A4227
:1057800048D3364B1B681B68002B04D1364B4FF0B7
:10579000FF321A603EE0314B1B68DB68DB68BB60A0
:1057A000BB685B687B603A697B689A4203D22E4A89
:1057B0007B6813602EE0BB6804331846FFF7E7FCF4
:1057C000BB689B6A002B04D0BB6818331846FFF7F0
:1057D000DEFCBB68DB6A01229A40244B1B68134342
:1057E000224A1360BB68DA6A13469B0013449B008D
:1057F0001F4A1A44BB68043319461046FFF76CFC75
:10580000BB68DA6A1B4B1B68DB6A9A42B9D3012377
:105810007B61B6E7174B1B68DA6A154913469B0094
:1058200013449B000B441B68012B01D901237B61AE
:10583000114B1B68002B07D001237B6104E00F4B49
:105840001B6801330D4A13607B6918461837BD4643
:1058500080BD00BF9C0C0020780C00202C0C002088
:10586000300C00208C0C0020940C00207C0C0020BC
:10587000A00B00209C0B0020880C0020840C002032
:1058800080B485B000AF1C4B1B68002B03D01B4BB2
:1058900001221A602AE0194B00221A60184B1B687B
:1058A0007B607B68B3FA83F3FB70FB78C3F11F0363
:1058B000FB60FA6813469B0013449B00114A134493
:1058C000BB60BB685B685A68BB685A60BB685A6853
:1058D000BB6808339A4204D1BB685B685A68BB68EE
:1058E0005A60BB685B68DB68074A136000BF143707
:1058F000BD4680BC704700BF9C0C0020880C002077
:105900007C0C0020A00B00209C0B002080B582B0F6
:1059100000AF786000F052F8064B1B68012BF9D9F4
:10592000054B4FF080521A60BFF34F8FBFF36F8F5C
:10593000F0E700BFA00B002004ED00E080B582B0CE
:1059400000AF00237B600CE07A6813469B00134491
:105950009B00124A13441846FFF793FB7B68013300
:105960007B607B68042BEFD90D48FFF78AFB0D485D
:10597000FFF787FB0C48FFF784FB0C48FFF781FB20
:105980000B48FFF77EFB0B4B054A1A600A4B054A92
:105990001A6000BF0837BD4680BD00BFA00B0020C5
:1059A000040C0020180C0020340C0020480C0020AF
:1059B000600C00202C0C0020300C002080B582B040
:1059C00000AF19E000F09AF9104BDB68DB687B60F0
:1059D0007B6804331846FFF7DAFB0D4B1B68013B6D
:1059E0000B4A13600B4B1B68013B0A4A136000F023
:1059F0009FF9786800F048F8064B1B68002BE1D14E
:105A000000BF00BF0837BD4680BD00BF480C002066
:105A1000740C00205C0C002080B485B000AF78606E
:105A20000023FB6005E07B6801337B60FB6801338A
:105A3000FB607B681B78A52BF5D0FB689B08FB609F
:105A4000FB689BB218461437BD4680BC7047000007
:105A500080B586B000AF78607B68002B03D1094B1E
:105A60001B687B6101E07B687B617B691B6B3B6131
:105A70003869FFF7D1FF0346FB60FB68184618370B
:105A8000BD4680BD9C0B002080B582B000AF786021
:105A90007B681B6B184600F065FA786800F062FAC4
:105AA00000BF0837BD4680BD80B400AF094B1B68FE
:105AB0001B68002B04D1084B4FF0FF321A6005E041
:105AC000044B1B68DB681B68034A136000BFBD46BC
:105AD00080BC70472C0C0020940C002080B483B054
